{
  "address": "0x94ED59118CA26708Cef7E98D35a6f47f30ca6998",
  "abi": [
    {
      "inputs": [],
      "stateMutability": "nonpayable",
      "type": "constructor"
    },
    {
      "anonymous": false,
      "inputs": [
        {
          "indexed": true,
          "internalType": "address",
          "name": "owner",
          "type": "address"
        },
        {
          "indexed": true,
          "internalType": "address",
          "name": "approved",
          "type": "address"
        },
        {
          "indexed": true,
          "internalType": "uint256",
          "name": "tokenId",
          "type": "uint256"
        }
      ],
      "name": "Approval",
      "type": "event"
    },
    {
      "anonymous": false,
      "inputs": [
        {
          "indexed": true,
          "internalType": "address",
          "name": "owner",
          "type": "address"
        },
        {
          "indexed": true,
          "internalType": "address",
          "name": "operator",
          "type": "address"
        },
        {
          "indexed": false,
          "internalType": "bool",
          "name": "approved",
          "type": "bool"
        }
      ],
      "name": "ApprovalForAll",
      "type": "event"
    },
    {
      "anonymous": false,
      "inputs": [
        {
          "indexed": true,
          "internalType": "uint256",
          "name": "itemId",
          "type": "uint256"
        },
        {
          "indexed": true,
          "internalType": "address",
          "name": "winner",
          "type": "address"
        },
        {
          "indexed": false,
          "internalType": "uint256",
          "name": "amount",
          "type": "uint256"
        }
      ],
      "name": "AuctionEnded",
      "type": "event"
    },
    {
      "anonymous": false,
      "inputs": [
        {
          "indexed": false,
          "internalType": "uint256",
          "name": "_fromTokenId",
          "type": "uint256"
        },
        {
          "indexed": false,
          "internalType": "uint256",
          "name": "_toTokenId",
          "type": "uint256"
        }
      ],
      "name": "BatchMetadataUpdate",
      "type": "event"
    },
    {
      "anonymous": false,
      "inputs": [
        {
          "indexed": false,
          "internalType": "uint256",
          "name": "_tokenId",
          "type": "uint256"
        }
      ],
      "name": "MetadataUpdate",
      "type": "event"
    },
    {
      "anonymous": false,
      "inputs": [
        {
          "indexed": true,
          "internalType": "uint256",
          "name": "itemId",
          "type": "uint256"
        },
        {
          "indexed": true,
          "internalType": "address",
          "name": "owner",
          "type": "address"
        },
        {
          "indexed": false,
          "internalType": "string",
          "name": "name",
          "type": "string"
        },
        {
          "indexed": false,
          "internalType": "uint256",
          "name": "startPrice",
          "type": "uint256"
        },
        {
          "indexed": false,
          "internalType": "uint256",
          "name": "endTime",
          "type": "uint256"
        }
      ],
      "name": "NewAuction",
      "type": "event"
    },
    {
      "anonymous": false,
      "inputs": [
        {
          "indexed": true,
          "internalType": "uint256",
          "name": "itemId",
          "type": "uint256"
        },
        {
          "indexed": true,
          "internalType": "address",
          "name": "bidder",
          "type": "address"
        },
        {
          "indexed": false,
          "internalType": "uint256",
          "name": "amount",
          "type": "uint256"
        }
      ],
      "name": "NewBid",
      "type": "event"
    },
    {
      "anonymous": false,
      "inputs": [
        {
          "indexed": true,
          "internalType": "address",
          "name": "from",
          "type": "address"
        },
        {
          "indexed": true,
          "internalType": "address",
          "name": "to",
          "type": "address"
        },
        {
          "indexed": true,
          "internalType": "uint256",
          "name": "tokenId",
          "type": "uint256"
        }
      ],
      "name": "Transfer",
      "type": "event"
    },
    {
      "inputs": [
        {
          "internalType": "address",
          "name": "to",
          "type": "address"
        },
        {
          "internalType": "uint256",
          "name": "tokenId",
          "type": "uint256"
        }
      ],
      "name": "approve",
      "outputs": [],
      "stateMutability": "nonpayable",
      "type": "function"
    },
    {
      "inputs": [
        {
          "internalType": "uint256",
          "name": "",
          "type": "uint256"
        }
      ],
      "name": "auctions",
      "outputs": [
        {
          "internalType": "uint256",
          "name": "itemId",
          "type": "uint256"
        },
        {
          "internalType": "string",
          "name": "name",
          "type": "string"
        },
        {
          "internalType": "string",
          "name": "metadata",
          "type": "string"
        },
        {
          "internalType": "address",
          "name": "owner",
          "type": "address"
        },
        {
          "internalType": "uint256",
          "name": "startPrice",
          "type": "uint256"
        },
        {
          "internalType": "uint256",
          "name": "highestBid",
          "type": "uint256"
        },
        {
          "internalType": "address",
          "name": "highestBidder",
          "type": "address"
        },
        {
          "internalType": "uint256",
          "name": "endTime",
          "type": "uint256"
        },
        {
          "internalType": "bool",
          "name": "ended",
          "type": "bool"
        }
      ],
      "stateMutability": "view",
      "type": "function"
    },
    {
      "inputs": [
        {
          "internalType": "address",
          "name": "owner",
          "type": "address"
        }
      ],
      "name": "balanceOf",
      "outputs": [
        {
          "internalType": "uint256",
          "name": "",
          "type": "uint256"
        }
      ],
      "stateMutability": "view",
      "type": "function"
    },
    {
      "inputs": [
        {
          "internalType": "uint256",
          "name": "itemId",
          "type": "uint256"
        }
      ],
      "name": "bid",
      "outputs": [],
      "stateMutability": "payable",
      "type": "function"
    },
    {
      "inputs": [
        {
          "internalType": "uint256",
          "name": "",
          "type": "uint256"
        }
      ],
      "name": "bidList",
      "outputs": [
        {
          "internalType": "uint256",
          "name": "itemId",
          "type": "uint256"
        },
        {
          "internalType": "string",
          "name": "name",
          "type": "string"
        },
        {
          "internalType": "string",
          "name": "metadata",
          "type": "string"
        },
        {
          "internalType": "address",
          "name": "owner",
          "type": "address"
        },
        {
          "internalType": "uint256",
          "name": "startPrice",
          "type": "uint256"
        },
        {
          "internalType": "uint256",
          "name": "highestBid",
          "type": "uint256"
        },
        {
          "internalType": "address",
          "name": "highestBidder",
          "type": "address"
        },
        {
          "internalType": "uint256",
          "name": "endTime",
          "type": "uint256"
        },
        {
          "internalType": "bool",
          "name": "ended",
          "type": "bool"
        }
      ],
      "stateMutability": "view",
      "type": "function"
    },
    {
      "inputs": [
        {
          "internalType": "string",
          "name": "metadata",
          "type": "string"
        },
        {
          "internalType": "string",
          "name": "name",
          "type": "string"
        },
        {
          "internalType": "uint256",
          "name": "startPrice",
          "type": "uint256"
        },
        {
          "internalType": "uint256",
          "name": "duration",
          "type": "uint256"
        }
      ],
      "name": "createAuction",
      "outputs": [],
      "stateMutability": "nonpayable",
      "type": "function"
    },
    {
      "inputs": [
        {
          "internalType": "uint256",
          "name": "itemId",
          "type": "uint256"
        }
      ],
      "name": "endAuction",
      "outputs": [],
      "stateMutability": "nonpayable",
      "type": "function"
    },
    {
      "inputs": [],
      "name": "getAllTokens",
      "outputs": [
        {
          "components": [
            {
              "internalType": "uint256",
              "name": "itemId",
              "type": "uint256"
            },
            {
              "internalType": "string",
              "name": "name",
              "type": "string"
            },
            {
              "internalType": "string",
              "name": "metadata",
              "type": "string"
            },
            {
              "internalType": "address",
              "name": "owner",
              "type": "address"
            },
            {
              "internalType": "uint256",
              "name": "startPrice",
              "type": "uint256"
            },
            {
              "internalType": "uint256",
              "name": "highestBid",
              "type": "uint256"
            },
            {
              "internalType": "address",
              "name": "highestBidder",
              "type": "address"
            },
            {
              "internalType": "uint256",
              "name": "endTime",
              "type": "uint256"
            },
            {
              "internalType": "bool",
              "name": "ended",
              "type": "bool"
            }
          ],
          "internalType": "struct AuctionCrypto.AuctionItem[]",
          "name": "",
          "type": "tuple[]"
        }
      ],
      "stateMutability": "view",
      "type": "function"
    },
    {
      "inputs": [
        {
          "internalType": "uint256",
          "name": "tokenId",
          "type": "uint256"
        }
      ],
      "name": "getApproved",
      "outputs": [
        {
          "internalType": "address",
          "name": "",
          "type": "address"
        }
      ],
      "stateMutability": "view",
      "type": "function"
    },
    {
      "inputs": [
        {
          "internalType": "address",
          "name": "_walletAddress",
          "type": "address"
        }
      ],
      "name": "getOwnerTokens",
      "outputs": [
        {
          "components": [
            {
              "internalType": "uint256",
              "name": "itemId",
              "type": "uint256"
            },
            {
              "internalType": "string",
              "name": "name",
              "type": "string"
            },
            {
              "internalType": "string",
              "name": "metadata",
              "type": "string"
            },
            {
              "internalType": "address",
              "name": "owner",
              "type": "address"
            },
            {
              "internalType": "uint256",
              "name": "startPrice",
              "type": "uint256"
            },
            {
              "internalType": "uint256",
              "name": "highestBid",
              "type": "uint256"
            },
            {
              "internalType": "address",
              "name": "highestBidder",
              "type": "address"
            },
            {
              "internalType": "uint256",
              "name": "endTime",
              "type": "uint256"
            },
            {
              "internalType": "bool",
              "name": "ended",
              "type": "bool"
            }
          ],
          "internalType": "struct AuctionCrypto.AuctionItem[]",
          "name": "",
          "type": "tuple[]"
        }
      ],
      "stateMutability": "view",
      "type": "function"
    },
    {
      "inputs": [
        {
          "internalType": "address",
          "name": "owner",
          "type": "address"
        },
        {
          "internalType": "address",
          "name": "operator",
          "type": "address"
        }
      ],
      "name": "isApprovedForAll",
      "outputs": [
        {
          "internalType": "bool",
          "name": "",
          "type": "bool"
        }
      ],
      "stateMutability": "view",
      "type": "function"
    },
    {
      "inputs": [],
      "name": "name",
      "outputs": [
        {
          "internalType": "string",
          "name": "",
          "type": "string"
        }
      ],
      "stateMutability": "view",
      "type": "function"
    },
    {
      "inputs": [],
      "name": "owner",
      "outputs": [
        {
          "internalType": "address",
          "name": "",
          "type": "address"
        }
      ],
      "stateMutability": "view",
      "type": "function"
    },
    {
      "inputs": [
        {
          "internalType": "uint256",
          "name": "tokenId",
          "type": "uint256"
        }
      ],
      "name": "ownerOf",
      "outputs": [
        {
          "internalType": "address",
          "name": "",
          "type": "address"
        }
      ],
      "stateMutability": "view",
      "type": "function"
    },
    {
      "inputs": [
        {
          "internalType": "address",
          "name": "from",
          "type": "address"
        },
        {
          "internalType": "address",
          "name": "to",
          "type": "address"
        },
        {
          "internalType": "uint256",
          "name": "tokenId",
          "type": "uint256"
        }
      ],
      "name": "safeTransferFrom",
      "outputs": [],
      "stateMutability": "nonpayable",
      "type": "function"
    },
    {
      "inputs": [
        {
          "internalType": "address",
          "name": "from",
          "type": "address"
        },
        {
          "internalType": "address",
          "name": "to",
          "type": "address"
        },
        {
          "internalType": "uint256",
          "name": "tokenId",
          "type": "uint256"
        },
        {
          "internalType": "bytes",
          "name": "data",
          "type": "bytes"
        }
      ],
      "name": "safeTransferFrom",
      "outputs": [],
      "stateMutability": "nonpayable",
      "type": "function"
    },
    {
      "inputs": [
        {
          "internalType": "address",
          "name": "operator",
          "type": "address"
        },
        {
          "internalType": "bool",
          "name": "approved",
          "type": "bool"
        }
      ],
      "name": "setApprovalForAll",
      "outputs": [],
      "stateMutability": "nonpayable",
      "type": "function"
    },
    {
      "inputs": [
        {
          "internalType": "bytes4",
          "name": "interfaceId",
          "type": "bytes4"
        }
      ],
      "name": "supportsInterface",
      "outputs": [
        {
          "internalType": "bool",
          "name": "",
          "type": "bool"
        }
      ],
      "stateMutability": "view",
      "type": "function"
    },
    {
      "inputs": [],
      "name": "symbol",
      "outputs": [
        {
          "internalType": "string",
          "name": "",
          "type": "string"
        }
      ],
      "stateMutability": "view",
      "type": "function"
    },
    {
      "inputs": [
        {
          "internalType": "uint256",
          "name": "tokenId",
          "type": "uint256"
        }
      ],
      "name": "tokenURI",
      "outputs": [
        {
          "internalType": "string",
          "name": "",
          "type": "string"
        }
      ],
      "stateMutability": "view",
      "type": "function"
    },
    {
      "inputs": [],
      "name": "totalSupply",
      "outputs": [
        {
          "internalType": "uint256",
          "name": "",
          "type": "uint256"
        }
      ],
      "stateMutability": "view",
      "type": "function"
    },
    {
      "inputs": [
        {
          "internalType": "address",
          "name": "from",
          "type": "address"
        },
        {
          "internalType": "address",
          "name": "to",
          "type": "address"
        },
        {
          "internalType": "uint256",
          "name": "tokenId",
          "type": "uint256"
        }
      ],
      "name": "transferFrom",
      "outputs": [],
      "stateMutability": "nonpayable",
      "type": "function"
    },
    {
      "inputs": [],
      "name": "withdraw",
      "outputs": [],
      "stateMutability": "nonpayable",
      "type": "function"
    }
  ],
  "transactionHash": "0x87b5579f0622767ceef5806531650c8d2a0c54ae321eaf28e07c83cb91b9a619",
  "args": [],
  "numDeployments": 1,
  "solcInputHash": "3ff2db071d909ec767f0c749459bdb81",
  "bytecode": "0x60806040523480156200001157600080fd5b506040518060400160405280601481526020017f41756374696f6e2043727970746f47656e6975730000000000000000000000008152506040518060400160405280600381526020016241554360e81b815250816000908162000075919062000144565b50600162000084828262000144565b5050600780546001600160a01b031916331790555062000210565b634e487b7160e01b600052604160045260246000fd5b600181811c90821680620000ca57607f821691505b602082108103620000eb57634e487b7160e01b600052602260045260246000fd5b50919050565b601f8211156200013f57600081815260208120601f850160051c810160208610156200011a5750805b601f850160051c820191505b818110156200013b5782815560010162000126565b5050505b505050565b81516001600160401b038111156200016057620001606200009f565b6200017881620001718454620000b5565b84620000f1565b602080601f831160018114620001b05760008415620001975750858301515b600019600386901b1c1916600185901b1785556200013b565b600085815260208120601f198616915b82811015620001e157888601518255948401946001909101908401620001c0565b5085821015620002005787850151600019600388901b60f8161c191681555b5050505050600190811b01905550565b6127d480620002206000396000f3fe6080604052600436106101405760003560e01c806361e2db55116100b6578063a22cb4651161006f578063a22cb4651461038e578063b88d4fde146103ae578063b9a2de3a146103ce578063c87b56dd146103ee578063d63d4af01461040e578063e985e9c51461042e57600080fd5b806361e2db55146102d95780636352211e146102f957806370a08231146103195780638da5cb5b1461033957806395d89b4114610359578063995620371461036e57600080fd5b806323b872dd1161010857806323b872dd1461021a5780632a5c792a1461023a5780633ccfd60b1461025c57806342842e0e14610271578063454a2ab314610291578063571a26a0146102a457600080fd5b806301ffc9a71461014557806306fdde031461017a578063081812fc1461019c578063095ea7b3146101d457806318160ddd146101f6575b600080fd5b34801561015157600080fd5b50610165610160366004611fa3565b61044e565b60405190151581526020015b60405180910390f35b34801561018657600080fd5b5061018f610479565b6040516101719190612010565b3480156101a857600080fd5b506101bc6101b7366004612023565b61050b565b6040516001600160a01b039091168152602001610171565b3480156101e057600080fd5b506101f46101ef366004612053565b610532565b005b34801561020257600080fd5b5061020c60085481565b604051908152602001610171565b34801561022657600080fd5b506101f461023536600461207d565b61064c565b34801561024657600080fd5b5061024f61067d565b60405161017191906120b9565b34801561026857600080fd5b506101f46108d9565b34801561027d57600080fd5b506101f461028c36600461207d565b610915565b6101f461029f366004612023565b610930565b3480156102b057600080fd5b506102c46102bf366004612023565b610bb3565b604051610171999897969594939291906121a3565b3480156102e557600080fd5b506101f46102f43660046122c4565b610d1a565b34801561030557600080fd5b506101bc610314366004612023565b610e9d565b34801561032557600080fd5b5061020c610334366004612338565b610efd565b34801561034557600080fd5b506007546101bc906001600160a01b031681565b34801561036557600080fd5b5061018f610f83565b34801561037a57600080fd5b506102c4610389366004612023565b610f92565b34801561039a57600080fd5b506101f46103a9366004612353565b610fb4565b3480156103ba57600080fd5b506101f46103c936600461238f565b610fc3565b3480156103da57600080fd5b506101f46103e9366004612023565b610ffb565b3480156103fa57600080fd5b5061018f610409366004612023565b6111cc565b34801561041a57600080fd5b5061024f610429366004612338565b6112dc565b34801561043a57600080fd5b5061016561044936600461240b565b61158b565b60006001600160e01b03198216632483248360e11b14806104735750610473826115b9565b92915050565b6060600080546104889061243e565b80601f01602080910402602001604051908101604052809291908181526020018280546104b49061243e565b80156105015780601f106104d657610100808354040283529160200191610501565b820191906000526020600020905b8154815290600101906020018083116104e457829003601f168201915b5050505050905090565b600061051682611609565b506000908152600460205260409020546001600160a01b031690565b600061053d82610e9d565b9050806001600160a01b0316836001600160a01b0316036105af5760405162461bcd60e51b815260206004820152602160248201527f4552433732313a20617070726f76616c20746f2063757272656e74206f776e656044820152603960f91b60648201526084015b60405180910390fd5b336001600160a01b03821614806105cb57506105cb813361158b565b61063d5760405162461bcd60e51b815260206004820152603d60248201527f4552433732313a20617070726f76652063616c6c6572206973206e6f7420746f60448201527f6b656e206f776e6572206f7220617070726f76656420666f7220616c6c00000060648201526084016105a6565b6106478383611668565b505050565b61065633826116d6565b6106725760405162461bcd60e51b81526004016105a690612472565b610647838383611734565b6060600060085467ffffffffffffffff81111561069c5761069c612218565b6040519080825280602002602001820160405280156106d557816020015b6106c2611f2d565b8152602001906001900390816106ba5790505b50600854909150156108d45760005b60016008546106f391906124d5565b8161ffff16116108d257600960008261ffff168152602001908152602001600020604051806101200160405290816000820154815260200160018201805461073a9061243e565b80601f01602080910402602001604051908101604052809291908181526020018280546107669061243e565b80156107b35780601f10610788576101008083540402835291602001916107b3565b820191906000526020600020905b81548152906001019060200180831161079657829003601f168201915b505050505081526020016002820180546107cc9061243e565b80601f01602080910402602001604051908101604052809291908181526020018280546107f89061243e565b80156108455780601f1061081a57610100808354040283529160200191610845565b820191906000526020600020905b81548152906001019060200180831161082857829003601f168201915b505050918352505060038201546001600160a01b03908116602083015260048301546040830152600583015460608301526006830154166080820152600782015460a082015260089091015460ff16151560c0909101528251839061ffff84169081106108b4576108b46124e8565b602002602001018190525080806108ca906124fe565b9150506106e4565b505b919050565b6007546040516001600160a01b03909116904780156108fc02916000818181858888f19350505050158015610912573d6000803e3d6000fd5b50565b61064783838360405180602001604052806000815250610fc3565b60008181526009602052604090206003015481906001600160a01b03166109925760405162461bcd60e51b8152602060048201526016602482015275105d58dd1a5bdb88191bd95cc81b9bdd08195e1a5cdd60521b60448201526064016105a6565b6000828152600960205260409020600301548290336001600160a01b03909116036109ff5760405162461bcd60e51b815260206004820152601f60248201527f596f752063616e6e6f7420626964206f6e20796f7572206f776e206974656d0060448201526064016105a6565b600083815260096020526040902060080154839060ff1615610a5f5760405162461bcd60e51b8152602060048201526019602482015278105d58dd1a5bdb881a185cc8185b1c9958591e48195b991959603a1b60448201526064016105a6565b6000848152600960205260409020600501543411610ad35760405162461bcd60e51b815260206004820152602b60248201527f426964206d75737420626520686967686572207468616e2063757272656e742060448201526a1a1a59da195cdd08189a5960aa1b60648201526084016105a6565b6000848152600960205260409020600601546001600160a01b031615610b4357600084815260096020526040808220600681015460059091015491516001600160a01b039091169282156108fc02929190818181858888f19350505050158015610b41573d6000803e3d6000fd5b505b600084815260096020526040908190203460058201819055600690910180546001600160a01b03191633908117909155915186917f558a0d5d5468d74b0db24c74eb348b42271c2ebb4c9e953ced38aaed95fa436191610ba591815260200190565b60405180910390a350505050565b60096020526000908152604090208054600182018054919291610bd59061243e565b80601f0160208091040260200160405190810160405280929190818152602001828054610c019061243e565b8015610c4e5780601f10610c2357610100808354040283529160200191610c4e565b820191906000526020600020905b815481529060010190602001808311610c3157829003601f168201915b505050505090806002018054610c639061243e565b80601f0160208091040260200160405190810160405280929190818152602001828054610c8f9061243e565b8015610cdc5780601f10610cb157610100808354040283529160200191610cdc565b820191906000526020600020905b815481529060010190602001808311610cbf57829003601f168201915b505050506003830154600484015460058501546006860154600787015460089097015495966001600160a01b03948516969395509193169160ff1689565b6008546040805161012081018252828152602081018690529081018690523360608201526080810184905260a08101849052600060c082015260e08101610d614285611898565b815260006020918201819052838152600982526040902082518155908201516001820190610d8f908261256d565b5060408201516002820190610da4908261256d565b5060608201516003820180546001600160a01b039283166001600160a01b0319918216179091556080840151600484015560a0840151600584015560c084015160068401805491909316911617905560e08201516007820155610100909101516008909101805491151560ff1990921691909117905584610e2533836118f7565b610e2f8282611a82565b60088054906000610e3f8361262d565b909155505060008281526009602052604090819020600701549051339184917f180b43a9f50a1f2dc5fa0d10afda303d033bc082b2dabad3465ad821abf5fab491610e8d918a918a91612646565b60405180910390a3505050505050565b6000818152600260205260408120546001600160a01b0316806104735760405162461bcd60e51b8152602060048201526018602482015277115490cdcc8c4e881a5b9d985b1a59081d1bdad95b88125160421b60448201526064016105a6565b60006001600160a01b038216610f675760405162461bcd60e51b815260206004820152602960248201527f4552433732313a2061646472657373207a65726f206973206e6f7420612076616044820152683634b21037bbb732b960b91b60648201526084016105a6565b506001600160a01b031660009081526003602052604090205490565b6060600180546104889061243e565b600a6020526000908152604090208054600182018054919291610bd59061243e565b610fbf338383611b4d565b5050565b610fcd33836116d6565b610fe95760405162461bcd60e51b81526004016105a690612472565b610ff584848484611c1b565b50505050565b60008181526009602052604090206003015481906001600160a01b031661105d5760405162461bcd60e51b8152602060048201526016602482015275105d58dd1a5bdb88191bd95cc81b9bdd08195e1a5cdd60521b60448201526064016105a6565b60008281526009602052604090206008015460ff16156110bb5760405162461bcd60e51b8152602060048201526019602482015278105d58dd1a5bdb881a185cc8185b1c9958591e48195b991959603a1b60448201526064016105a6565b600082815260096020526040902060088101805460ff19166001179055600601546001600160a01b03161561119757600082815260096020526040808220600381015460059091015491516001600160a01b039091169282156108fc02929190818181858888f19350505050158015611138573d6000803e3d6000fd5b50600082815260096020908152604091829020600681015460059091015492519283526001600160a01b03169184917fd2aa34a4fdbbc6dff6a3e56f46e0f3ae2a31d7785ff3487aa5c95c642acea50191015b60405180910390a35050565b60405160008082529083907fd2aa34a4fdbbc6dff6a3e56f46e0f3ae2a31d7785ff3487aa5c95c642acea5019060200161118b565b60606111d782611609565b600082815260066020526040812080546111f09061243e565b80601f016020809104026020016040519081016040528092919081815260200182805461121c9061243e565b80156112695780601f1061123e57610100808354040283529160200191611269565b820191906000526020600020905b81548152906001019060200180831161124c57829003601f168201915b50505050509050600061128760408051602081019091526000815290565b90508051600003611299575092915050565b8151156112cb5780826040516020016112b392919061266b565b60405160208183030381529060405292505050919050565b6112d484611c4e565b949350505050565b606060006112e983610efd565b905060008167ffffffffffffffff81111561130657611306612218565b60405190808252806020026020018201604052801561133f57816020015b61132c611f2d565b8152602001906001900390816113245790505b5090508115611584576000805b600160085461135b91906124d5565b8161ffff16116115815761ffff811660009081526009602052604081205461138290610e9d565b9050866001600160a01b0316816001600160a01b03160361156e57600960008361ffff16815260200190815260200160002060405180610120016040529081600082015481526020016001820180546113da9061243e565b80601f01602080910402602001604051908101604052809291908181526020018280546114069061243e565b80156114535780601f1061142857610100808354040283529160200191611453565b820191906000526020600020905b81548152906001019060200180831161143657829003601f168201915b5050505050815260200160028201805461146c9061243e565b80601f01602080910402602001604051908101604052809291908181526020018280546114989061243e565b80156114e55780601f106114ba576101008083540402835291602001916114e5565b820191906000526020600020905b8154815290600101906020018083116114c857829003601f168201915b505050918352505060038201546001600160a01b03908116602083015260048301546040830152600583015460608301526006830154166080820152600782015460a082015260089091015460ff16151560c0909101528451859061ffff8616908110611554576115546124e8565b6020026020010181905250828061156a906124fe565b9350505b5080611579816124fe565b91505061134c565b50505b9392505050565b6001600160a01b03918216600090815260056020908152604080832093909416825291909152205460ff1690565b60006001600160e01b031982166380ac58cd60e01b14806115ea57506001600160e01b03198216635b5e139f60e01b145b8061047357506301ffc9a760e01b6001600160e01b0319831614610473565b6000818152600260205260409020546001600160a01b03166109125760405162461bcd60e51b8152602060048201526018602482015277115490cdcc8c4e881a5b9d985b1a59081d1bdad95b88125160421b60448201526064016105a6565b600081815260046020526040902080546001600160a01b0319166001600160a01b038416908117909155819061169d82610e9d565b6001600160a01b03167f8c5be1e5ebec7d5bd14f71427d1e84f3dd0314c0f7b2291e5b200ac8c7c3b92560405160405180910390a45050565b6000806116e283610e9d565b9050806001600160a01b0316846001600160a01b031614806117095750611709818561158b565b806112d45750836001600160a01b03166117228461050b565b6001600160a01b031614949350505050565b826001600160a01b031661174782610e9d565b6001600160a01b03161461176d5760405162461bcd60e51b81526004016105a69061269a565b6001600160a01b0382166117cf5760405162461bcd60e51b8152602060048201526024808201527f4552433732313a207472616e7366657220746f20746865207a65726f206164646044820152637265737360e01b60648201526084016105a6565b826001600160a01b03166117e282610e9d565b6001600160a01b0316146118085760405162461bcd60e51b81526004016105a69061269a565b600081815260046020908152604080832080546001600160a01b03199081169091556001600160a01b0387811680865260038552838620805460001901905590871680865283862080546001019055868652600290945282852080549092168417909155905184937fddf252ad1be2c89b69c2b068fc378daa952ba7f163c4a11628f55a4df523b3ef91a4505050565b6000806118a583856126df565b9050838110156115845760405162461bcd60e51b815260206004820152601b60248201527f536166654d6174683a206164646974696f6e206f766572666c6f77000000000060448201526064016105a6565b6001600160a01b03821661194d5760405162461bcd60e51b815260206004820181905260248201527f4552433732313a206d696e7420746f20746865207a65726f206164647265737360448201526064016105a6565b6000818152600260205260409020546001600160a01b0316156119b25760405162461bcd60e51b815260206004820152601c60248201527f4552433732313a20746f6b656e20616c7265616479206d696e7465640000000060448201526064016105a6565b6000818152600260205260409020546001600160a01b031615611a175760405162461bcd60e51b815260206004820152601c60248201527f4552433732313a20746f6b656e20616c7265616479206d696e7465640000000060448201526064016105a6565b6001600160a01b038216600081815260036020908152604080832080546001019055848352600290915280822080546001600160a01b0319168417905551839291907fddf252ad1be2c89b69c2b068fc378daa952ba7f163c4a11628f55a4df523b3ef908290a45050565b6000828152600260205260409020546001600160a01b0316611afd5760405162461bcd60e51b815260206004820152602e60248201527f45524337323155524953746f726167653a2055524920736574206f66206e6f6e60448201526d32bc34b9ba32b73a103a37b5b2b760911b60648201526084016105a6565b6000828152600660205260409020611b15828261256d565b506040518281527ff8e1a15aba9398e019f0b49df1a4fde98ee17ae345cb5f6b5e2c27f5033e8ce79060200160405180910390a15050565b816001600160a01b0316836001600160a01b031603611bae5760405162461bcd60e51b815260206004820152601960248201527f4552433732313a20617070726f766520746f2063616c6c65720000000000000060448201526064016105a6565b6001600160a01b03838116600081815260056020908152604080832094871680845294825291829020805460ff191686151590811790915591519182527f17307eab39ab6107e8899845ad3d59bd9653f200f220920489ca2b5937696c31910160405180910390a3505050565b611c26848484611734565b611c3284848484611cc1565b610ff55760405162461bcd60e51b81526004016105a6906126f2565b6060611c5982611609565b6000611c7060408051602081019091526000815290565b90506000815111611c905760405180602001604052806000815250611584565b80611c9a84611dc2565b604051602001611cab92919061266b565b6040516020818303038152906040529392505050565b60006001600160a01b0384163b15611db757604051630a85bd0160e11b81526001600160a01b0385169063150b7a0290611d05903390899088908890600401612744565b6020604051808303816000875af1925050508015611d40575060408051601f3d908101601f19168201909252611d3d91810190612781565b60015b611d9d573d808015611d6e576040519150601f19603f3d011682016040523d82523d6000602084013e611d73565b606091505b508051600003611d955760405162461bcd60e51b81526004016105a6906126f2565b805181602001fd5b6001600160e01b031916630a85bd0160e11b1490506112d4565b506001949350505050565b60606000611dcf83611e55565b600101905060008167ffffffffffffffff811115611def57611def612218565b6040519080825280601f01601f191660200182016040528015611e19576020820181803683370190505b5090508181016020015b600019016f181899199a1a9b1b9c1cb0b131b232b360811b600a86061a8153600a8504945084611e2357509392505050565b60008072184f03e93ff9f4daa797ed6e38ed64bf6a1f0160401b8310611e945772184f03e93ff9f4daa797ed6e38ed64bf6a1f0160401b830492506040015b6d04ee2d6d415b85acef81000000008310611ec0576d04ee2d6d415b85acef8100000000830492506020015b662386f26fc100008310611ede57662386f26fc10000830492506010015b6305f5e1008310611ef6576305f5e100830492506008015b6127108310611f0a57612710830492506004015b60648310611f1c576064830492506002015b600a83106104735760010192915050565b60405180610120016040528060008152602001606081526020016060815260200160006001600160a01b03168152602001600081526020016000815260200160006001600160a01b03168152602001600081526020016000151581525090565b6001600160e01b03198116811461091257600080fd5b600060208284031215611fb557600080fd5b813561158481611f8d565b60005b83811015611fdb578181015183820152602001611fc3565b50506000910152565b60008151808452611ffc816020860160208601611fc0565b601f01601f19169290920160200192915050565b6020815260006115846020830184611fe4565b60006020828403121561203557600080fd5b5035919050565b80356001600160a01b03811681146108d457600080fd5b6000806040838503121561206657600080fd5b61206f8361203c565b946020939093013593505050565b60008060006060848603121561209257600080fd5b61209b8461203c565b92506120a96020850161203c565b9150604084013590509250925092565b60006020808301818452808551808352604092508286019150828160051b87010184880160005b8381101561219557603f1989840301855281516101208151855288820151818a87015261210f82870182611fe4565b91505087820151858203898701526121278282611fe4565b915050606080830151612144828801826001600160a01b03169052565b50506080828101519086015260a0808301519086015260c0808301516001600160a01b03169086015260e08083015190860152610100918201511515919094015293860193908601906001016120e0565b509098975050505050505050565b60006101208b83528060208401526121bd8184018c611fe4565b905082810360408401526121d1818b611fe4565b6001600160a01b03998a1660608501526080840198909852505060a08101949094529190941660c083015260e0820193909352911515610100909201919091529392505050565b634e487b7160e01b600052604160045260246000fd5b600067ffffffffffffffff8084111561224957612249612218565b604051601f8501601f19908116603f0116810190828211818310171561227157612271612218565b8160405280935085815286868601111561228a57600080fd5b858560208301376000602087830101525050509392505050565b600082601f8301126122b557600080fd5b6115848383356020850161222e565b600080600080608085870312156122da57600080fd5b843567ffffffffffffffff808211156122f257600080fd5b6122fe888389016122a4565b9550602087013591508082111561231457600080fd5b50612321878288016122a4565b949794965050505060408301359260600135919050565b60006020828403121561234a57600080fd5b6115848261203c565b6000806040838503121561236657600080fd5b61236f8361203c565b91506020830135801515811461238457600080fd5b809150509250929050565b600080600080608085870312156123a557600080fd5b6123ae8561203c565b93506123bc6020860161203c565b925060408501359150606085013567ffffffffffffffff8111156123df57600080fd5b8501601f810187136123f057600080fd5b6123ff8782356020840161222e565b91505092959194509250565b6000806040838503121561241e57600080fd5b6124278361203c565b91506124356020840161203c565b90509250929050565b600181811c9082168061245257607f821691505b6020821081036108d257634e487b7160e01b600052602260045260246000fd5b6020808252602d908201527f4552433732313a2063616c6c6572206973206e6f7420746f6b656e206f776e6560408201526c1c881bdc88185c1c1c9bdd9959609a1b606082015260800190565b634e487b7160e01b600052601160045260246000fd5b81810381811115610473576104736124bf565b634e487b7160e01b600052603260045260246000fd5b600061ffff808316818103612515576125156124bf565b6001019392505050565b601f82111561064757600081815260208120601f850160051c810160208610156125465750805b601f850160051c820191505b8181101561256557828155600101612552565b505050505050565b815167ffffffffffffffff81111561258757612587612218565b61259b81612595845461243e565b8461251f565b602080601f8311600181146125d057600084156125b85750858301515b600019600386901b1c1916600185901b178555612565565b600085815260208120601f198616915b828110156125ff578886015182559484019460019091019084016125e0565b508582101561261d5787850151600019600388901b60f8161c191681555b5050505050600190811b01905550565b60006001820161263f5761263f6124bf565b5060010190565b6060815260006126596060830186611fe4565b60208301949094525060400152919050565b6000835161267d818460208801611fc0565b835190830190612691818360208801611fc0565b01949350505050565b60208082526025908201527f4552433732313a207472616e736665722066726f6d20696e636f72726563742060408201526437bbb732b960d91b606082015260800190565b80820180821115610473576104736124bf565b60208082526032908201527f4552433732313a207472616e7366657220746f206e6f6e20455243373231526560408201527131b2b4bb32b91034b6b83632b6b2b73a32b960711b606082015260800190565b6001600160a01b038581168252841660208201526040810183905260806060820181905260009061277790830184611fe4565b9695505050505050565b60006020828403121561279357600080fd5b815161158481611f8d56fea264697066735822122002effe2ac8fb89522c97e5e78a6644e58e0e2f1b7bcdcb6cafe04561465e11ff64736f6c63430008140033",
  "devdoc": {
    "events": {
      "Approval(address,address,uint256)": {
        "details": "Emitted when `owner` enables `approved` to manage the `tokenId` token."
      },
      "ApprovalForAll(address,address,bool)": {
        "details": "Emitted when `owner` enables or disables (`approved`) `operator` to manage all of its assets."
      },
      "BatchMetadataUpdate(uint256,uint256)": {
        "details": "This event emits when the metadata of a range of tokens is changed. So that the third-party platforms such as NFT market could timely update the images and related attributes of the NFTs."
      },
      "MetadataUpdate(uint256)": {
        "details": "This event emits when the metadata of a token is changed. So that the third-party platforms such as NFT market could timely update the images and related attributes of the NFT."
      },
      "Transfer(address,address,uint256)": {
        "details": "Emitted when `tokenId` token is transferred from `from` to `to`."
      }
    },
    "kind": "dev",
    "methods": {
      "approve(address,uint256)": {
        "details": "See {IERC721-approve}."
      },
      "balanceOf(address)": {
        "details": "See {IERC721-balanceOf}."
      },
      "getApproved(uint256)": {
        "details": "See {IERC721-getApproved}."
      },
      "isApprovedForAll(address,address)": {
        "details": "See {IERC721-isApprovedForAll}."
      },
      "name()": {
        "details": "See {IERC721Metadata-name}."
      },
      "ownerOf(uint256)": {
        "details": "See {IERC721-ownerOf}."
      },
      "safeTransferFrom(address,address,uint256)": {
        "details": "See {IERC721-safeTransferFrom}."
      },
      "safeTransferFrom(address,address,uint256,bytes)": {
        "details": "See {IERC721-safeTransferFrom}."
      },
      "setApprovalForAll(address,bool)": {
        "details": "See {IERC721-setApprovalForAll}."
      },
      "supportsInterface(bytes4)": {
        "details": "See {IERC165-supportsInterface}"
      },
      "symbol()": {
        "details": "See {IERC721Metadata-symbol}."
      },
      "tokenURI(uint256)": {
        "details": "See {IERC721Metadata-tokenURI}."
      },
      "transferFrom(address,address,uint256)": {
        "details": "See {IERC721-transferFrom}."
      }
    },
    "version": 1
  },
  "userdoc": {
    "kind": "user",
    "methods": {},
    "version": 1
  },
  "storageLayout": {
    "storage": [
      {
        "astId": 244,
        "contract": "contracts/AuctionCrypto.sol:AuctionCrypto",
        "label": "_name",
        "offset": 0,
        "slot": "0",
        "type": "t_string_storage"
      },
      {
        "astId": 246,
        "contract": "contracts/AuctionCrypto.sol:AuctionCrypto",
        "label": "_symbol",
        "offset": 0,
        "slot": "1",
        "type": "t_string_storage"
      },
      {
        "astId": 250,
        "contract": "contracts/AuctionCrypto.sol:AuctionCrypto",
        "label": "_owners",
        "offset": 0,
        "slot": "2",
        "type": "t_mapping(t_uint256,t_address)"
      },
      {
        "astId": 254,
        "contract": "contracts/AuctionCrypto.sol:AuctionCrypto",
        "label": "_balances",
        "offset": 0,
        "slot": "3",
        "type": "t_mapping(t_address,t_uint256)"
      },
      {
        "astId": 258,
        "contract": "contracts/AuctionCrypto.sol:AuctionCrypto",
        "label": "_tokenApprovals",
        "offset": 0,
        "slot": "4",
        "type": "t_mapping(t_uint256,t_address)"
      },
      {
        "astId": 264,
        "contract": "contracts/AuctionCrypto.sol:AuctionCrypto",
        "label": "_operatorApprovals",
        "offset": 0,
        "slot": "5",
        "type": "t_mapping(t_address,t_mapping(t_address,t_bool))"
      },
      {
        "astId": 1295,
        "contract": "contracts/AuctionCrypto.sol:AuctionCrypto",
        "label": "_tokenURIs",
        "offset": 0,
        "slot": "6",
        "type": "t_mapping(t_uint256,t_string_storage)"
      },
      {
        "astId": 3072,
        "contract": "contracts/AuctionCrypto.sol:AuctionCrypto",
        "label": "owner",
        "offset": 0,
        "slot": "7",
        "type": "t_address"
      },
      {
        "astId": 3074,
        "contract": "contracts/AuctionCrypto.sol:AuctionCrypto",
        "label": "totalSupply",
        "offset": 0,
        "slot": "8",
        "type": "t_uint256"
      },
      {
        "astId": 3098,
        "contract": "contracts/AuctionCrypto.sol:AuctionCrypto",
        "label": "auctions",
        "offset": 0,
        "slot": "9",
        "type": "t_mapping(t_uint256,t_struct(AuctionItem)3093_storage)"
      },
      {
        "astId": 3103,
        "contract": "contracts/AuctionCrypto.sol:AuctionCrypto",
        "label": "bidList",
        "offset": 0,
        "slot": "10",
        "type": "t_mapping(t_uint256,t_struct(AuctionItem)3093_storage)"
      }
    ],
    "types": {
      "t_address": {
        "encoding": "inplace",
        "label": "address",
        "numberOfBytes": "20"
      },
      "t_bool": {
        "encoding": "inplace",
        "label": "bool",
        "numberOfBytes": "1"
      },
      "t_mapping(t_address,t_bool)": {
        "encoding": "mapping",
        "key": "t_address",
        "label": "mapping(address => bool)",
        "numberOfBytes": "32",
        "value": "t_bool"
      },
      "t_mapping(t_address,t_mapping(t_address,t_bool))": {
        "encoding": "mapping",
        "key": "t_address",
        "label": "mapping(address => mapping(address => bool))",
        "numberOfBytes": "32",
        "value": "t_mapping(t_address,t_bool)"
      },
      "t_mapping(t_address,t_uint256)": {
        "encoding": "mapping",
        "key": "t_address",
        "label": "mapping(address => uint256)",
        "numberOfBytes": "32",
        "value": "t_uint256"
      },
      "t_mapping(t_uint256,t_address)": {
        "encoding": "mapping",
        "key": "t_uint256",
        "label": "mapping(uint256 => address)",
        "numberOfBytes": "32",
        "value": "t_address"
      },
      "t_mapping(t_uint256,t_string_storage)": {
        "encoding": "mapping",
        "key": "t_uint256",
        "label": "mapping(uint256 => string)",
        "numberOfBytes": "32",
        "value": "t_string_storage"
      },
      "t_mapping(t_uint256,t_struct(AuctionItem)3093_storage)": {
        "encoding": "mapping",
        "key": "t_uint256",
        "label": "mapping(uint256 => struct AuctionCrypto.AuctionItem)",
        "numberOfBytes": "32",
        "value": "t_struct(AuctionItem)3093_storage"
      },
      "t_string_storage": {
        "encoding": "bytes",
        "label": "string",
        "numberOfBytes": "32"
      },
      "t_struct(AuctionItem)3093_storage": {
        "encoding": "inplace",
        "label": "struct AuctionCrypto.AuctionItem",
        "members": [
          {
            "astId": 3076,
            "contract": "contracts/AuctionCrypto.sol:AuctionCrypto",
            "label": "itemId",
            "offset": 0,
            "slot": "0",
            "type": "t_uint256"
          },
          {
            "astId": 3078,
            "contract": "contracts/AuctionCrypto.sol:AuctionCrypto",
            "label": "name",
            "offset": 0,
            "slot": "1",
            "type": "t_string_storage"
          },
          {
            "astId": 3080,
            "contract": "contracts/AuctionCrypto.sol:AuctionCrypto",
            "label": "metadata",
            "offset": 0,
            "slot": "2",
            "type": "t_string_storage"
          },
          {
            "astId": 3082,
            "contract": "contracts/AuctionCrypto.sol:AuctionCrypto",
            "label": "owner",
            "offset": 0,
            "slot": "3",
            "type": "t_address"
          },
          {
            "astId": 3084,
            "contract": "contracts/AuctionCrypto.sol:AuctionCrypto",
            "label": "startPrice",
            "offset": 0,
            "slot": "4",
            "type": "t_uint256"
          },
          {
            "astId": 3086,
            "contract": "contracts/AuctionCrypto.sol:AuctionCrypto",
            "label": "highestBid",
            "offset": 0,
            "slot": "5",
            "type": "t_uint256"
          },
          {
            "astId": 3088,
            "contract": "contracts/AuctionCrypto.sol:AuctionCrypto",
            "label": "highestBidder",
            "offset": 0,
            "slot": "6",
            "type": "t_address"
          },
          {
            "astId": 3090,
            "contract": "contracts/AuctionCrypto.sol:AuctionCrypto",
            "label": "endTime",
            "offset": 0,
            "slot": "7",
            "type": "t_uint256"
          },
          {
            "astId": 3092,
            "contract": "contracts/AuctionCrypto.sol:AuctionCrypto",
            "label": "ended",
            "offset": 0,
            "slot": "8",
            "type": "t_bool"
          }
        ],
        "numberOfBytes": "288"
      },
      "t_uint256": {
        "encoding": "inplace",
        "label": "uint256",
        "numberOfBytes": "32"
      }
    }
  }
}