{
  "address": "0x6a2Db4Cd39f49512d5406caa60b47B3CA57d682f",
  "abi": [
    {
      "inputs": [],
      "stateMutability": "nonpayable",
      "type": "constructor"
    },
    {
      "anonymous": false,
      "inputs": [
        {
          "indexed": true,
          "internalType": "address",
          "name": "owner",
          "type": "address"
        },
        {
          "indexed": true,
          "internalType": "address",
          "name": "approved",
          "type": "address"
        },
        {
          "indexed": true,
          "internalType": "uint256",
          "name": "tokenId",
          "type": "uint256"
        }
      ],
      "name": "Approval",
      "type": "event"
    },
    {
      "anonymous": false,
      "inputs": [
        {
          "indexed": true,
          "internalType": "address",
          "name": "owner",
          "type": "address"
        },
        {
          "indexed": true,
          "internalType": "address",
          "name": "operator",
          "type": "address"
        },
        {
          "indexed": false,
          "internalType": "bool",
          "name": "approved",
          "type": "bool"
        }
      ],
      "name": "ApprovalForAll",
      "type": "event"
    },
    {
      "anonymous": false,
      "inputs": [
        {
          "indexed": false,
          "internalType": "uint256",
          "name": "_fromTokenId",
          "type": "uint256"
        },
        {
          "indexed": false,
          "internalType": "uint256",
          "name": "_toTokenId",
          "type": "uint256"
        }
      ],
      "name": "BatchMetadataUpdate",
      "type": "event"
    },
    {
      "anonymous": false,
      "inputs": [
        {
          "indexed": false,
          "internalType": "uint256",
          "name": "_tokenId",
          "type": "uint256"
        }
      ],
      "name": "MetadataUpdate",
      "type": "event"
    },
    {
      "anonymous": false,
      "inputs": [
        {
          "indexed": true,
          "internalType": "address",
          "name": "previousOwner",
          "type": "address"
        },
        {
          "indexed": true,
          "internalType": "address",
          "name": "newOwner",
          "type": "address"
        }
      ],
      "name": "OwnershipTransferred",
      "type": "event"
    },
    {
      "anonymous": false,
      "inputs": [
        {
          "indexed": true,
          "internalType": "address",
          "name": "from",
          "type": "address"
        },
        {
          "indexed": true,
          "internalType": "address",
          "name": "to",
          "type": "address"
        },
        {
          "indexed": true,
          "internalType": "uint256",
          "name": "tokenId",
          "type": "uint256"
        }
      ],
      "name": "Transfer",
      "type": "event"
    },
    {
      "anonymous": false,
      "inputs": [
        {
          "indexed": true,
          "internalType": "uint256",
          "name": "tokenId",
          "type": "uint256"
        }
      ],
      "name": "callCreateToken",
      "type": "event"
    },
    {
      "anonymous": false,
      "inputs": [
        {
          "indexed": true,
          "internalType": "uint256",
          "name": "tokenId",
          "type": "uint256"
        }
      ],
      "name": "callMakeCheckIn",
      "type": "event"
    },
    {
      "inputs": [
        {
          "internalType": "address",
          "name": "to",
          "type": "address"
        },
        {
          "internalType": "uint256",
          "name": "tokenId",
          "type": "uint256"
        }
      ],
      "name": "approve",
      "outputs": [],
      "stateMutability": "nonpayable",
      "type": "function"
    },
    {
      "inputs": [
        {
          "internalType": "address",
          "name": "owner",
          "type": "address"
        }
      ],
      "name": "balanceOf",
      "outputs": [
        {
          "internalType": "uint256",
          "name": "",
          "type": "uint256"
        }
      ],
      "stateMutability": "view",
      "type": "function"
    },
    {
      "inputs": [
        {
          "internalType": "uint256",
          "name": "",
          "type": "uint256"
        }
      ],
      "name": "cashBackTokens",
      "outputs": [
        {
          "internalType": "uint256",
          "name": "tokenId",
          "type": "uint256"
        },
        {
          "internalType": "string",
          "name": "percent",
          "type": "string"
        },
        {
          "internalType": "string",
          "name": "name",
          "type": "string"
        },
        {
          "internalType": "string",
          "name": "metadata",
          "type": "string"
        },
        {
          "internalType": "bool",
          "name": "available",
          "type": "bool"
        },
        {
          "internalType": "bool",
          "name": "doneCheckIn",
          "type": "bool"
        }
      ],
      "stateMutability": "view",
      "type": "function"
    },
    {
      "inputs": [
        {
          "internalType": "address",
          "name": "",
          "type": "address"
        },
        {
          "internalType": "uint256",
          "name": "",
          "type": "uint256"
        }
      ],
      "name": "cashBackTokensByAddress",
      "outputs": [
        {
          "internalType": "uint256",
          "name": "tokenId",
          "type": "uint256"
        },
        {
          "internalType": "string",
          "name": "percent",
          "type": "string"
        },
        {
          "internalType": "string",
          "name": "name",
          "type": "string"
        },
        {
          "internalType": "string",
          "name": "metadata",
          "type": "string"
        },
        {
          "internalType": "bool",
          "name": "available",
          "type": "bool"
        },
        {
          "internalType": "bool",
          "name": "doneCheckIn",
          "type": "bool"
        }
      ],
      "stateMutability": "view",
      "type": "function"
    },
    {
      "inputs": [
        {
          "internalType": "string",
          "name": "metadata",
          "type": "string"
        },
        {
          "internalType": "string",
          "name": "percent",
          "type": "string"
        },
        {
          "internalType": "uint256",
          "name": "quant",
          "type": "uint256"
        }
      ],
      "name": "createToken",
      "outputs": [],
      "stateMutability": "nonpayable",
      "type": "function"
    },
    {
      "inputs": [],
      "name": "getAllTokens",
      "outputs": [
        {
          "components": [
            {
              "internalType": "uint256",
              "name": "tokenId",
              "type": "uint256"
            },
            {
              "internalType": "string",
              "name": "percent",
              "type": "string"
            },
            {
              "internalType": "string",
              "name": "name",
              "type": "string"
            },
            {
              "internalType": "string",
              "name": "metadata",
              "type": "string"
            },
            {
              "internalType": "bool",
              "name": "available",
              "type": "bool"
            },
            {
              "internalType": "bool",
              "name": "doneCheckIn",
              "type": "bool"
            }
          ],
          "internalType": "struct CashBackNFT.Token[]",
          "name": "",
          "type": "tuple[]"
        }
      ],
      "stateMutability": "view",
      "type": "function"
    },
    {
      "inputs": [
        {
          "internalType": "uint256",
          "name": "tokenId",
          "type": "uint256"
        }
      ],
      "name": "getApproved",
      "outputs": [
        {
          "internalType": "address",
          "name": "",
          "type": "address"
        }
      ],
      "stateMutability": "view",
      "type": "function"
    },
    {
      "inputs": [
        {
          "internalType": "address",
          "name": "_walletAddress",
          "type": "address"
        }
      ],
      "name": "getOwnerTokens",
      "outputs": [
        {
          "components": [
            {
              "internalType": "uint256",
              "name": "tokenId",
              "type": "uint256"
            },
            {
              "internalType": "string",
              "name": "percent",
              "type": "string"
            },
            {
              "internalType": "string",
              "name": "name",
              "type": "string"
            },
            {
              "internalType": "string",
              "name": "metadata",
              "type": "string"
            },
            {
              "internalType": "bool",
              "name": "available",
              "type": "bool"
            },
            {
              "internalType": "bool",
              "name": "doneCheckIn",
              "type": "bool"
            }
          ],
          "internalType": "struct CashBackNFT.Token[]",
          "name": "",
          "type": "tuple[]"
        }
      ],
      "stateMutability": "view",
      "type": "function"
    },
    {
      "inputs": [
        {
          "internalType": "address",
          "name": "owner",
          "type": "address"
        },
        {
          "internalType": "address",
          "name": "operator",
          "type": "address"
        }
      ],
      "name": "isApprovedForAll",
      "outputs": [
        {
          "internalType": "bool",
          "name": "",
          "type": "bool"
        }
      ],
      "stateMutability": "view",
      "type": "function"
    },
    {
      "inputs": [
        {
          "internalType": "uint256",
          "name": "_tokenId",
          "type": "uint256"
        }
      ],
      "name": "makeCheckIn",
      "outputs": [],
      "stateMutability": "nonpayable",
      "type": "function"
    },
    {
      "inputs": [],
      "name": "name",
      "outputs": [
        {
          "internalType": "string",
          "name": "",
          "type": "string"
        }
      ],
      "stateMutability": "view",
      "type": "function"
    },
    {
      "inputs": [],
      "name": "owner",
      "outputs": [
        {
          "internalType": "address",
          "name": "",
          "type": "address"
        }
      ],
      "stateMutability": "view",
      "type": "function"
    },
    {
      "inputs": [
        {
          "internalType": "uint256",
          "name": "tokenId",
          "type": "uint256"
        }
      ],
      "name": "ownerOf",
      "outputs": [
        {
          "internalType": "address",
          "name": "",
          "type": "address"
        }
      ],
      "stateMutability": "view",
      "type": "function"
    },
    {
      "inputs": [],
      "name": "renounceOwnership",
      "outputs": [],
      "stateMutability": "nonpayable",
      "type": "function"
    },
    {
      "inputs": [
        {
          "internalType": "address",
          "name": "from",
          "type": "address"
        },
        {
          "internalType": "address",
          "name": "to",
          "type": "address"
        },
        {
          "internalType": "uint256",
          "name": "tokenId",
          "type": "uint256"
        }
      ],
      "name": "safeTransferFrom",
      "outputs": [],
      "stateMutability": "nonpayable",
      "type": "function"
    },
    {
      "inputs": [
        {
          "internalType": "address",
          "name": "from",
          "type": "address"
        },
        {
          "internalType": "address",
          "name": "to",
          "type": "address"
        },
        {
          "internalType": "uint256",
          "name": "tokenId",
          "type": "uint256"
        },
        {
          "internalType": "bytes",
          "name": "data",
          "type": "bytes"
        }
      ],
      "name": "safeTransferFrom",
      "outputs": [],
      "stateMutability": "nonpayable",
      "type": "function"
    },
    {
      "inputs": [
        {
          "internalType": "address",
          "name": "operator",
          "type": "address"
        },
        {
          "internalType": "bool",
          "name": "approved",
          "type": "bool"
        }
      ],
      "name": "setApprovalForAll",
      "outputs": [],
      "stateMutability": "nonpayable",
      "type": "function"
    },
    {
      "inputs": [
        {
          "internalType": "bytes4",
          "name": "interfaceId",
          "type": "bytes4"
        }
      ],
      "name": "supportsInterface",
      "outputs": [
        {
          "internalType": "bool",
          "name": "",
          "type": "bool"
        }
      ],
      "stateMutability": "view",
      "type": "function"
    },
    {
      "inputs": [],
      "name": "symbol",
      "outputs": [
        {
          "internalType": "string",
          "name": "",
          "type": "string"
        }
      ],
      "stateMutability": "view",
      "type": "function"
    },
    {
      "inputs": [],
      "name": "tokenContract",
      "outputs": [
        {
          "internalType": "contract ERC721",
          "name": "",
          "type": "address"
        }
      ],
      "stateMutability": "view",
      "type": "function"
    },
    {
      "inputs": [
        {
          "internalType": "uint256",
          "name": "tokenId",
          "type": "uint256"
        }
      ],
      "name": "tokenURI",
      "outputs": [
        {
          "internalType": "string",
          "name": "",
          "type": "string"
        }
      ],
      "stateMutability": "view",
      "type": "function"
    },
    {
      "inputs": [],
      "name": "totalSupply",
      "outputs": [
        {
          "internalType": "uint256",
          "name": "",
          "type": "uint256"
        }
      ],
      "stateMutability": "view",
      "type": "function"
    },
    {
      "inputs": [
        {
          "internalType": "address",
          "name": "from",
          "type": "address"
        },
        {
          "internalType": "address",
          "name": "to",
          "type": "address"
        },
        {
          "internalType": "uint256",
          "name": "tokenId",
          "type": "uint256"
        }
      ],
      "name": "transferFrom",
      "outputs": [],
      "stateMutability": "nonpayable",
      "type": "function"
    },
    {
      "inputs": [
        {
          "internalType": "address",
          "name": "newOwner",
          "type": "address"
        }
      ],
      "name": "transferOwnership",
      "outputs": [],
      "stateMutability": "nonpayable",
      "type": "function"
    }
  ],
  "transactionHash": "0x51c03032917b09e8d0e35e3ff48985f5fb2bc9f5c76d6163fa202dccd4aa966e",
  "args": [],
  "numDeployments": 3,
  "solcInputHash": "90318ff69bf73f584ede8e6aed2bc0df",
  "bytecode": "0x60806040523480156200001157600080fd5b506040518060400160405280600e81526020016d21b0b9b42130b1b5902a37b5b2b760911b8152506040518060400160405280600481526020016308682a6960e31b8152508160009081620000679190620002b1565b506001620000768282620002b1565b505050620000936200008d620000d560201b60201c565b620000d9565b600880546001600160a01b031981166001600160a01b03909116179055620000cf73bdb1384ba2ba275f220af23a6d09088d7004d7b06200012b565b6200037d565b3390565b600780546001600160a01b038381166001600160a01b0319831681179093556040519116919082907f8be0079c531659141344cd1fd0a4f28419497f9722a3daafe3b4186f6b6457e090600090a35050565b62000135620001ae565b6001600160a01b038116620001a05760405162461bcd60e51b815260206004820152602660248201527f4f776e61626c653a206e6577206f776e657220697320746865207a65726f206160448201526564647265737360d01b60648201526084015b60405180910390fd5b620001ab81620000d9565b50565b6007546001600160a01b031633146200020a5760405162461bcd60e51b815260206004820181905260248201527f4f776e61626c653a2063616c6c6572206973206e6f7420746865206f776e6572604482015260640162000197565b565b634e487b7160e01b600052604160045260246000fd5b600181811c908216806200023757607f821691505b6020821081036200025857634e487b7160e01b600052602260045260246000fd5b50919050565b601f821115620002ac57600081815260208120601f850160051c81016020861015620002875750805b601f850160051c820191505b81811015620002a85782815560010162000293565b5050505b505050565b81516001600160401b03811115620002cd57620002cd6200020c565b620002e581620002de845462000222565b846200025e565b602080601f8311600181146200031d5760008415620003045750858301515b600019600386901b1c1916600185901b178555620002a8565b600085815260208120601f198616915b828110156200034e578886015182559484019460019091019084016200032d565b50858210156200036d5787850151600019600388901b60f8161c191681555b5050505050600190811b01905550565b612706806200038d6000396000f3fe608060405234801561001057600080fd5b50600436106101585760003560e01c80636352211e116100c3578063b88d4fde1161007c578063b88d4fde146102e4578063c87b56dd146102f7578063cb55961c1461030a578063d63d4af01461031d578063e985e9c514610330578063f2fde38b1461034357600080fd5b80636352211e1461028a57806370a082311461029d578063715018a6146102b05780638da5cb5b146102b857806395d89b41146102c9578063a22cb465146102d157600080fd5b80631e9357ba116101155780631e9357ba1461020457806323b872dd146102295780632a5c792a1461023c57806342842e0e1461025157806355a373d6146102645780635b0605301461027757600080fd5b806301ffc9a71461015d57806306fdde0314610185578063081812fc1461019a578063095ea7b3146101c557806318160ddd146101da5780631c4ff864146101f1575b600080fd5b61017061016b366004611e89565b610356565b60405190151581526020015b60405180910390f35b61018d610381565b60405161017c9190611ef6565b6101ad6101a8366004611f09565b610413565b6040516001600160a01b03909116815260200161017c565b6101d86101d3366004611f37565b61043a565b005b6101e360095481565b60405190815260200161017c565b6101d86101ff366004611f09565b610554565b610217610212366004611f09565b6107ac565b60405161017c96959493929190611f63565b6101d8610237366004611fbd565b61097f565b6102446109b0565b60405161017c9190611ffe565b6101d861025f366004611fbd565b610ca5565b6008546101ad906001600160a01b031681565b6101d861028536600461216e565b610cc0565b6101ad610298366004611f09565b610e3c565b6101e36102ab3660046121db565b610e9c565b6101d8610f22565b6007546001600160a01b03166101ad565b61018d610f36565b6101d86102df3660046121f8565b610f45565b6101d86102f2366004612236565b610f54565b61018d610305366004611f09565b610f86565b610217610318366004611f37565b611096565b61024461032b3660046121db565b6110c3565b61017061033e3660046122b6565b61140b565b6101d86103513660046121db565b611439565b60006001600160e01b03198216632483248360e11b148061037b575061037b826114b2565b92915050565b606060008054610390906122e4565b80601f01602080910402602001604051908101604052809291908181526020018280546103bc906122e4565b80156104095780601f106103de57610100808354040283529160200191610409565b820191906000526020600020905b8154815290600101906020018083116103ec57829003601f168201915b5050505050905090565b600061041e82611502565b506000908152600460205260409020546001600160a01b031690565b600061044582610e3c565b9050806001600160a01b0316836001600160a01b0316036104b75760405162461bcd60e51b815260206004820152602160248201527f4552433732313a20617070726f76616c20746f2063757272656e74206f776e656044820152603960f91b60648201526084015b60405180910390fd5b336001600160a01b03821614806104d357506104d3813361140b565b6105455760405162461bcd60e51b815260206004820152603d60248201527f4552433732313a20617070726f76652063616c6c6572206973206e6f7420746f60448201527f6b656e206f776e6572206f7220617070726f76656420666f7220616c6c00000060648201526084016104ae565b61054f8383611561565b505050565b336105945760405162461bcd60e51b815260206004820152601060248201526f15d85b1b195d081b9bdd081d985b1a5960821b60448201526064016104ae565b3332146105e35760405162461bcd60e51b815260206004820152601c60248201527f4f6e6c792065787465726e616c2077616c6c657420616c6c6f7765640000000060448201526064016104ae565b6000818152600a602052604090206004015460ff1661063a5760405162461bcd60e51b8152602060048201526013602482015272546f6b656e206e6f7420417661696c61626c6560681b60448201526064016104ae565b6000818152600a6020526040902060040154610100900460ff16156106a15760405162461bcd60e51b815260206004820152601860248201527f546f6b656e20616c726561647920636865636b656420696e000000000000000060448201526064016104ae565b6008546040516331a9108f60e11b81526004810183905233916001600160a01b031690636352211e90602401602060405180830381865afa1580156106ea573d6000803e3d6000fd5b505050506040513d601f19601f8201168201806040525081019061070e9190612318565b6001600160a01b0316146107645760405162461bcd60e51b815260206004820152601f60248201527f596f7520617265206e6f74206f776e6572206f66207468697320746f6b656e0060448201526064016104ae565b6000818152600a6020526040808220600401805461ff0019166101001790555182917f586a00c760c699a31d2bfb44e19019465283cd533605acdf01e4cc33b1138b8891a250565b600a60205260009081526040902080546001820180549192916107ce906122e4565b80601f01602080910402602001604051908101604052809291908181526020018280546107fa906122e4565b80156108475780601f1061081c57610100808354040283529160200191610847565b820191906000526020600020905b81548152906001019060200180831161082a57829003601f168201915b50505050509080600201805461085c906122e4565b80601f0160208091040260200160405190810160405280929190818152602001828054610888906122e4565b80156108d55780601f106108aa576101008083540402835291602001916108d5565b820191906000526020600020905b8154815290600101906020018083116108b857829003601f168201915b5050505050908060030180546108ea906122e4565b80601f0160208091040260200160405190810160405280929190818152602001828054610916906122e4565b80156109635780601f1061093857610100808354040283529160200191610963565b820191906000526020600020905b81548152906001019060200180831161094657829003601f168201915b5050506004909301549192505060ff8082169161010090041686565b61098933826115cf565b6109a55760405162461bcd60e51b81526004016104ae90612335565b61054f83838361162d565b6060600060095467ffffffffffffffff8111156109cf576109cf6120c2565b604051908082528060200260200182016040528015610a3d57816020015b610a2a6040518060c00160405280600081526020016060815260200160608152602001606081526020016000151581526020016000151581525090565b8152602001906001900390816109ed5790505b5060095490915015610ca05760005b6001600954610a5b9190612398565b8161ffff1611610c9e57600a60008261ffff1681526020019081526020016000206040518060c001604052908160008201548152602001600182018054610aa1906122e4565b80601f0160208091040260200160405190810160405280929190818152602001828054610acd906122e4565b8015610b1a5780601f10610aef57610100808354040283529160200191610b1a565b820191906000526020600020905b815481529060010190602001808311610afd57829003601f168201915b50505050508152602001600282018054610b33906122e4565b80601f0160208091040260200160405190810160405280929190818152602001828054610b5f906122e4565b8015610bac5780601f10610b8157610100808354040283529160200191610bac565b820191906000526020600020905b815481529060010190602001808311610b8f57829003601f168201915b50505050508152602001600382018054610bc5906122e4565b80601f0160208091040260200160405190810160405280929190818152602001828054610bf1906122e4565b8015610c3e5780601f10610c1357610100808354040283529160200191610c3e565b820191906000526020600020905b815481529060010190602001808311610c2157829003601f168201915b50505091835250506004919091015460ff808216151560208401526101009091041615156040909101528251839061ffff8416908110610c8057610c806123ab565b60200260200101819052508080610c96906123c1565b915050610a4c565b505b919050565b61054f83838360405180602001604052806000815250610f54565b610cc8611791565b60015b818111610e3657600083604051602001610ce591906123e2565b604051602081830303815290604052905060006009549050600086604051602001610d10919061241e565b60408051601f1981840301815260c08301825284835260208381018a815284840188905260608501839052600160808601819052600060a08701819052888152600a9093529390912084518155905191945091820190610d7090826124d7565b5060408201516002820190610d8590826124d7565b5060608201516003820190610d9a90826124d7565b5060808201516004909101805460a09093015115156101000261ff00199215159290921661ffff1990931692909217179055610dd633836117eb565b610de08282611976565b60098054906000610df083612597565b909155505060405182907fc5ae46c0a99c5e8dab5e6d897bc2b469f869f2a9f9b1843c41537901f1d8a5e390600090a25050508080610e2e90612597565b915050610ccb565b50505050565b6000818152600260205260408120546001600160a01b03168061037b5760405162461bcd60e51b8152602060048201526018602482015277115490cdcc8c4e881a5b9d985b1a59081d1bdad95b88125160421b60448201526064016104ae565b60006001600160a01b038216610f065760405162461bcd60e51b815260206004820152602960248201527f4552433732313a2061646472657373207a65726f206973206e6f7420612076616044820152683634b21037bbb732b960b91b60648201526084016104ae565b506001600160a01b031660009081526003602052604090205490565b610f2a611791565b610f346000611a41565b565b606060018054610390906122e4565b610f50338383611a93565b5050565b610f5e33836115cf565b610f7a5760405162461bcd60e51b81526004016104ae90612335565b610e3684848484611b61565b6060610f9182611502565b60008281526006602052604081208054610faa906122e4565b80601f0160208091040260200160405190810160405280929190818152602001828054610fd6906122e4565b80156110235780601f10610ff857610100808354040283529160200191611023565b820191906000526020600020905b81548152906001019060200180831161100657829003601f168201915b50505050509050600061104160408051602081019091526000815290565b90508051600003611053575092915050565b81511561108557808260405160200161106d9291906125b0565b60405160208183030381529060405292505050919050565b61108e84611b94565b949350505050565b600b602090815260009283526040808420909152908252902080546001820180549192916107ce906122e4565b606060006110d083610e9c565b905060008167ffffffffffffffff8111156110ed576110ed6120c2565b60405190808252806020026020018201604052801561115b57816020015b6111486040518060c00160405280600081526020016060815260200160608152602001606081526020016000151581526020016000151581525090565b81526020019060019003908161110b5790505b5090508115611404576000805b60016009546111779190612398565b8161ffff16116114015761ffff81166000908152600a602052604081205461119e90610e3c565b9050866001600160a01b0316816001600160a01b0316036113ee57600a60008361ffff1681526020019081526020016000206040518060c0016040529081600082015481526020016001820180546111f5906122e4565b80601f0160208091040260200160405190810160405280929190818152602001828054611221906122e4565b801561126e5780601f106112435761010080835404028352916020019161126e565b820191906000526020600020905b81548152906001019060200180831161125157829003601f168201915b50505050508152602001600282018054611287906122e4565b80601f01602080910402602001604051908101604052809291908181526020018280546112b3906122e4565b80156113005780601f106112d557610100808354040283529160200191611300565b820191906000526020600020905b8154815290600101906020018083116112e357829003601f168201915b50505050508152602001600382018054611319906122e4565b80601f0160208091040260200160405190810160405280929190818152602001828054611345906122e4565b80156113925780601f1061136757610100808354040283529160200191611392565b820191906000526020600020905b81548152906001019060200180831161137557829003601f168201915b50505091835250506004919091015460ff808216151560208401526101009091041615156040909101528451859061ffff86169081106113d4576113d46123ab565b602002602001018190525082806113ea906123c1565b9350505b50806113f9816123c1565b915050611168565b50505b9392505050565b6001600160a01b03918216600090815260056020908152604080832093909416825291909152205460ff1690565b611441611791565b6001600160a01b0381166114a65760405162461bcd60e51b815260206004820152602660248201527f4f776e61626c653a206e6577206f776e657220697320746865207a65726f206160448201526564647265737360d01b60648201526084016104ae565b6114af81611a41565b50565b60006001600160e01b031982166380ac58cd60e01b14806114e357506001600160e01b03198216635b5e139f60e01b145b8061037b57506301ffc9a760e01b6001600160e01b031983161461037b565b6000818152600260205260409020546001600160a01b03166114af5760405162461bcd60e51b8152602060048201526018602482015277115490cdcc8c4e881a5b9d985b1a59081d1bdad95b88125160421b60448201526064016104ae565b600081815260046020526040902080546001600160a01b0319166001600160a01b038416908117909155819061159682610e3c565b6001600160a01b03167f8c5be1e5ebec7d5bd14f71427d1e84f3dd0314c0f7b2291e5b200ac8c7c3b92560405160405180910390a45050565b6000806115db83610e3c565b9050806001600160a01b0316846001600160a01b031614806116025750611602818561140b565b8061108e5750836001600160a01b031661161b84610413565b6001600160a01b031614949350505050565b826001600160a01b031661164082610e3c565b6001600160a01b0316146116665760405162461bcd60e51b81526004016104ae906125df565b6001600160a01b0382166116c85760405162461bcd60e51b8152602060048201526024808201527f4552433732313a207472616e7366657220746f20746865207a65726f206164646044820152637265737360e01b60648201526084016104ae565b826001600160a01b03166116db82610e3c565b6001600160a01b0316146117015760405162461bcd60e51b81526004016104ae906125df565b600081815260046020908152604080832080546001600160a01b03199081169091556001600160a01b0387811680865260038552838620805460001901905590871680865283862080546001019055868652600290945282852080549092168417909155905184937fddf252ad1be2c89b69c2b068fc378daa952ba7f163c4a11628f55a4df523b3ef91a4505050565b6007546001600160a01b03163314610f345760405162461bcd60e51b815260206004820181905260248201527f4f776e61626c653a2063616c6c6572206973206e6f7420746865206f776e657260448201526064016104ae565b6001600160a01b0382166118415760405162461bcd60e51b815260206004820181905260248201527f4552433732313a206d696e7420746f20746865207a65726f206164647265737360448201526064016104ae565b6000818152600260205260409020546001600160a01b0316156118a65760405162461bcd60e51b815260206004820152601c60248201527f4552433732313a20746f6b656e20616c7265616479206d696e7465640000000060448201526064016104ae565b6000818152600260205260409020546001600160a01b03161561190b5760405162461bcd60e51b815260206004820152601c60248201527f4552433732313a20746f6b656e20616c7265616479206d696e7465640000000060448201526064016104ae565b6001600160a01b038216600081815260036020908152604080832080546001019055848352600290915280822080546001600160a01b0319168417905551839291907fddf252ad1be2c89b69c2b068fc378daa952ba7f163c4a11628f55a4df523b3ef908290a45050565b6000828152600260205260409020546001600160a01b03166119f15760405162461bcd60e51b815260206004820152602e60248201527f45524337323155524953746f726167653a2055524920736574206f66206e6f6e60448201526d32bc34b9ba32b73a103a37b5b2b760911b60648201526084016104ae565b6000828152600660205260409020611a0982826124d7565b506040518281527ff8e1a15aba9398e019f0b49df1a4fde98ee17ae345cb5f6b5e2c27f5033e8ce79060200160405180910390a15050565b600780546001600160a01b038381166001600160a01b0319831681179093556040519116919082907f8be0079c531659141344cd1fd0a4f28419497f9722a3daafe3b4186f6b6457e090600090a35050565b816001600160a01b0316836001600160a01b031603611af45760405162461bcd60e51b815260206004820152601960248201527f4552433732313a20617070726f766520746f2063616c6c65720000000000000060448201526064016104ae565b6001600160a01b03838116600081815260056020908152604080832094871680845294825291829020805460ff191686151590811790915591519182527f17307eab39ab6107e8899845ad3d59bd9653f200f220920489ca2b5937696c31910160405180910390a3505050565b611b6c84848461162d565b611b7884848484611c07565b610e365760405162461bcd60e51b81526004016104ae90612624565b6060611b9f82611502565b6000611bb660408051602081019091526000815290565b90506000815111611bd65760405180602001604052806000815250611404565b80611be084611d08565b604051602001611bf19291906125b0565b6040516020818303038152906040529392505050565b60006001600160a01b0384163b15611cfd57604051630a85bd0160e11b81526001600160a01b0385169063150b7a0290611c4b903390899088908890600401612676565b6020604051808303816000875af1925050508015611c86575060408051601f3d908101601f19168201909252611c83918101906126b3565b60015b611ce3573d808015611cb4576040519150601f19603f3d011682016040523d82523d6000602084013e611cb9565b606091505b508051600003611cdb5760405162461bcd60e51b81526004016104ae90612624565b805181602001fd5b6001600160e01b031916630a85bd0160e11b14905061108e565b506001949350505050565b60606000611d1583611d9b565b600101905060008167ffffffffffffffff811115611d3557611d356120c2565b6040519080825280601f01601f191660200182016040528015611d5f576020820181803683370190505b5090508181016020015b600019016f181899199a1a9b1b9c1cb0b131b232b360811b600a86061a8153600a8504945084611d6957509392505050565b60008072184f03e93ff9f4daa797ed6e38ed64bf6a1f0160401b8310611dda5772184f03e93ff9f4daa797ed6e38ed64bf6a1f0160401b830492506040015b6d04ee2d6d415b85acef81000000008310611e06576d04ee2d6d415b85acef8100000000830492506020015b662386f26fc100008310611e2457662386f26fc10000830492506010015b6305f5e1008310611e3c576305f5e100830492506008015b6127108310611e5057612710830492506004015b60648310611e62576064830492506002015b600a831061037b5760010192915050565b6001600160e01b0319811681146114af57600080fd5b600060208284031215611e9b57600080fd5b813561140481611e73565b60005b83811015611ec1578181015183820152602001611ea9565b50506000910152565b60008151808452611ee2816020860160208601611ea6565b601f01601f19169290920160200192915050565b6020815260006114046020830184611eca565b600060208284031215611f1b57600080fd5b5035919050565b6001600160a01b03811681146114af57600080fd5b60008060408385031215611f4a57600080fd5b8235611f5581611f22565b946020939093013593505050565b86815260c060208201526000611f7c60c0830188611eca565b8281036040840152611f8e8188611eca565b90508281036060840152611fa28187611eca565b9415156080840152505090151560a090910152949350505050565b600080600060608486031215611fd257600080fd5b8335611fdd81611f22565b92506020840135611fed81611f22565b929592945050506040919091013590565b60006020808301818452808551808352604092508286019150828160051b87010184880160005b838110156120b457603f19898403018552815160c08151855288820151818a87015261205382870182611eca565b915050878201518582038987015261206b8282611eca565b915050606080830151868303828801526120858382611eca565b60808581015115159089015260a094850151151594909701939093525050509386019390860190600101612025565b509098975050505050505050565b634e487b7160e01b600052604160045260246000fd5b600067ffffffffffffffff808411156120f3576120f36120c2565b604051601f8501601f19908116603f0116810190828211818310171561211b5761211b6120c2565b8160405280935085815286868601111561213457600080fd5b858560208301376000602087830101525050509392505050565b600082601f83011261215f57600080fd5b611404838335602085016120d8565b60008060006060848603121561218357600080fd5b833567ffffffffffffffff8082111561219b57600080fd5b6121a78783880161214e565b945060208601359150808211156121bd57600080fd5b506121ca8682870161214e565b925050604084013590509250925092565b6000602082840312156121ed57600080fd5b813561140481611f22565b6000806040838503121561220b57600080fd5b823561221681611f22565b91506020830135801515811461222b57600080fd5b809150509250929050565b6000806000806080858703121561224c57600080fd5b843561225781611f22565b9350602085013561226781611f22565b925060408501359150606085013567ffffffffffffffff81111561228a57600080fd5b8501601f8101871361229b57600080fd5b6122aa878235602084016120d8565b91505092959194509250565b600080604083850312156122c957600080fd5b82356122d481611f22565b9150602083013561222b81611f22565b600181811c908216806122f857607f821691505b602082108103610c9e57634e487b7160e01b600052602260045260246000fd5b60006020828403121561232a57600080fd5b815161140481611f22565b6020808252602d908201527f4552433732313a2063616c6c6572206973206e6f7420746f6b656e206f776e6560408201526c1c881bdc88185c1c1c9bdd9959609a1b606082015260800190565b634e487b7160e01b600052601160045260246000fd5b8181038181111561037b5761037b612382565b634e487b7160e01b600052603260045260246000fd5b600061ffff8083168181036123d8576123d8612382565b6001019392505050565b68021b0b9b42130b1b5960bd1b815260008251612406816009850160208701611ea6565b602560f81b6009939091019283015250600a01919050565b7f68747470733a2f2f6c6176656e6465722d696d6167696e61746976652d63617081527f79626172612d3939342e6d7970696e6174612e636c6f75642f697066732f000060208201526000825161247c81603e850160208701611ea6565b91909101603e0192915050565b601f82111561054f57600081815260208120601f850160051c810160208610156124b05750805b601f850160051c820191505b818110156124cf578281556001016124bc565b505050505050565b815167ffffffffffffffff8111156124f1576124f16120c2565b612505816124ff84546122e4565b84612489565b602080601f83116001811461253a57600084156125225750858301515b600019600386901b1c1916600185901b1785556124cf565b600085815260208120601f198616915b828110156125695788860151825594840194600190910190840161254a565b50858210156125875787850151600019600388901b60f8161c191681555b5050505050600190811b01905550565b6000600182016125a9576125a9612382565b5060010190565b600083516125c2818460208801611ea6565b8351908301906125d6818360208801611ea6565b01949350505050565b60208082526025908201527f4552433732313a207472616e736665722066726f6d20696e636f72726563742060408201526437bbb732b960d91b606082015260800190565b60208082526032908201527f4552433732313a207472616e7366657220746f206e6f6e20455243373231526560408201527131b2b4bb32b91034b6b83632b6b2b73a32b960711b606082015260800190565b6001600160a01b03858116825284166020820152604081018390526080606082018190526000906126a990830184611eca565b9695505050505050565b6000602082840312156126c557600080fd5b815161140481611e7356fea2646970667358221220a39ae09fe49bfb14963335a98a089db2dc663f1e0d8b4ef602e0988c3535f0c664736f6c63430008140033",
  "devdoc": {
    "events": {
      "Approval(address,address,uint256)": {
        "details": "Emitted when `owner` enables `approved` to manage the `tokenId` token."
      },
      "ApprovalForAll(address,address,bool)": {
        "details": "Emitted when `owner` enables or disables (`approved`) `operator` to manage all of its assets."
      },
      "BatchMetadataUpdate(uint256,uint256)": {
        "details": "This event emits when the metadata of a range of tokens is changed. So that the third-party platforms such as NFT market could timely update the images and related attributes of the NFTs."
      },
      "MetadataUpdate(uint256)": {
        "details": "This event emits when the metadata of a token is changed. So that the third-party platforms such as NFT market could timely update the images and related attributes of the NFT."
      },
      "Transfer(address,address,uint256)": {
        "details": "Emitted when `tokenId` token is transferred from `from` to `to`."
      }
    },
    "kind": "dev",
    "methods": {
      "approve(address,uint256)": {
        "details": "See {IERC721-approve}."
      },
      "balanceOf(address)": {
        "details": "See {IERC721-balanceOf}."
      },
      "getApproved(uint256)": {
        "details": "See {IERC721-getApproved}."
      },
      "isApprovedForAll(address,address)": {
        "details": "See {IERC721-isApprovedForAll}."
      },
      "name()": {
        "details": "See {IERC721Metadata-name}."
      },
      "owner()": {
        "details": "Returns the address of the current owner."
      },
      "ownerOf(uint256)": {
        "details": "See {IERC721-ownerOf}."
      },
      "renounceOwnership()": {
        "details": "Leaves the contract without owner. It will not be possible to call `onlyOwner` functions. Can only be called by the current owner. NOTE: Renouncing ownership will leave the contract without an owner, thereby disabling any functionality that is only available to the owner."
      },
      "safeTransferFrom(address,address,uint256)": {
        "details": "See {IERC721-safeTransferFrom}."
      },
      "safeTransferFrom(address,address,uint256,bytes)": {
        "details": "See {IERC721-safeTransferFrom}."
      },
      "setApprovalForAll(address,bool)": {
        "details": "See {IERC721-setApprovalForAll}."
      },
      "supportsInterface(bytes4)": {
        "details": "See {IERC165-supportsInterface}"
      },
      "symbol()": {
        "details": "See {IERC721Metadata-symbol}."
      },
      "tokenURI(uint256)": {
        "details": "See {IERC721Metadata-tokenURI}."
      },
      "transferFrom(address,address,uint256)": {
        "details": "See {IERC721-transferFrom}."
      },
      "transferOwnership(address)": {
        "details": "Transfers ownership of the contract to a new account (`newOwner`). Can only be called by the current owner."
      }
    },
    "version": 1
  },
  "userdoc": {
    "kind": "user",
    "methods": {},
    "version": 1
  },
  "storageLayout": {
    "storage": [
      {
        "astId": 166,
        "contract": "contracts/CashBackNFT.sol:CashBackNFT",
        "label": "_name",
        "offset": 0,
        "slot": "0",
        "type": "t_string_storage"
      },
      {
        "astId": 168,
        "contract": "contracts/CashBackNFT.sol:CashBackNFT",
        "label": "_symbol",
        "offset": 0,
        "slot": "1",
        "type": "t_string_storage"
      },
      {
        "astId": 172,
        "contract": "contracts/CashBackNFT.sol:CashBackNFT",
        "label": "_owners",
        "offset": 0,
        "slot": "2",
        "type": "t_mapping(t_uint256,t_address)"
      },
      {
        "astId": 176,
        "contract": "contracts/CashBackNFT.sol:CashBackNFT",
        "label": "_balances",
        "offset": 0,
        "slot": "3",
        "type": "t_mapping(t_address,t_uint256)"
      },
      {
        "astId": 180,
        "contract": "contracts/CashBackNFT.sol:CashBackNFT",
        "label": "_tokenApprovals",
        "offset": 0,
        "slot": "4",
        "type": "t_mapping(t_uint256,t_address)"
      },
      {
        "astId": 186,
        "contract": "contracts/CashBackNFT.sol:CashBackNFT",
        "label": "_operatorApprovals",
        "offset": 0,
        "slot": "5",
        "type": "t_mapping(t_address,t_mapping(t_address,t_bool))"
      },
      {
        "astId": 1217,
        "contract": "contracts/CashBackNFT.sol:CashBackNFT",
        "label": "_tokenURIs",
        "offset": 0,
        "slot": "6",
        "type": "t_mapping(t_uint256,t_string_storage)"
      },
      {
        "astId": 7,
        "contract": "contracts/CashBackNFT.sol:CashBackNFT",
        "label": "_owner",
        "offset": 0,
        "slot": "7",
        "type": "t_address"
      },
      {
        "astId": 2994,
        "contract": "contracts/CashBackNFT.sol:CashBackNFT",
        "label": "tokenContract",
        "offset": 0,
        "slot": "8",
        "type": "t_contract(ERC721)1067"
      },
      {
        "astId": 2996,
        "contract": "contracts/CashBackNFT.sol:CashBackNFT",
        "label": "totalSupply",
        "offset": 0,
        "slot": "9",
        "type": "t_uint256"
      },
      {
        "astId": 3014,
        "contract": "contracts/CashBackNFT.sol:CashBackNFT",
        "label": "cashBackTokens",
        "offset": 0,
        "slot": "10",
        "type": "t_mapping(t_uint256,t_struct(Token)3009_storage)"
      },
      {
        "astId": 3021,
        "contract": "contracts/CashBackNFT.sol:CashBackNFT",
        "label": "cashBackTokensByAddress",
        "offset": 0,
        "slot": "11",
        "type": "t_mapping(t_address,t_mapping(t_uint256,t_struct(Token)3009_storage))"
      }
    ],
    "types": {
      "t_address": {
        "encoding": "inplace",
        "label": "address",
        "numberOfBytes": "20"
      },
      "t_bool": {
        "encoding": "inplace",
        "label": "bool",
        "numberOfBytes": "1"
      },
      "t_contract(ERC721)1067": {
        "encoding": "inplace",
        "label": "contract ERC721",
        "numberOfBytes": "20"
      },
      "t_mapping(t_address,t_bool)": {
        "encoding": "mapping",
        "key": "t_address",
        "label": "mapping(address => bool)",
        "numberOfBytes": "32",
        "value": "t_bool"
      },
      "t_mapping(t_address,t_mapping(t_address,t_bool))": {
        "encoding": "mapping",
        "key": "t_address",
        "label": "mapping(address => mapping(address => bool))",
        "numberOfBytes": "32",
        "value": "t_mapping(t_address,t_bool)"
      },
      "t_mapping(t_address,t_mapping(t_uint256,t_struct(Token)3009_storage))": {
        "encoding": "mapping",
        "key": "t_address",
        "label": "mapping(address => mapping(uint256 => struct CashBackNFT.Token))",
        "numberOfBytes": "32",
        "value": "t_mapping(t_uint256,t_struct(Token)3009_storage)"
      },
      "t_mapping(t_address,t_uint256)": {
        "encoding": "mapping",
        "key": "t_address",
        "label": "mapping(address => uint256)",
        "numberOfBytes": "32",
        "value": "t_uint256"
      },
      "t_mapping(t_uint256,t_address)": {
        "encoding": "mapping",
        "key": "t_uint256",
        "label": "mapping(uint256 => address)",
        "numberOfBytes": "32",
        "value": "t_address"
      },
      "t_mapping(t_uint256,t_string_storage)": {
        "encoding": "mapping",
        "key": "t_uint256",
        "label": "mapping(uint256 => string)",
        "numberOfBytes": "32",
        "value": "t_string_storage"
      },
      "t_mapping(t_uint256,t_struct(Token)3009_storage)": {
        "encoding": "mapping",
        "key": "t_uint256",
        "label": "mapping(uint256 => struct CashBackNFT.Token)",
        "numberOfBytes": "32",
        "value": "t_struct(Token)3009_storage"
      },
      "t_string_storage": {
        "encoding": "bytes",
        "label": "string",
        "numberOfBytes": "32"
      },
      "t_struct(Token)3009_storage": {
        "encoding": "inplace",
        "label": "struct CashBackNFT.Token",
        "members": [
          {
            "astId": 2998,
            "contract": "contracts/CashBackNFT.sol:CashBackNFT",
            "label": "tokenId",
            "offset": 0,
            "slot": "0",
            "type": "t_uint256"
          },
          {
            "astId": 3000,
            "contract": "contracts/CashBackNFT.sol:CashBackNFT",
            "label": "percent",
            "offset": 0,
            "slot": "1",
            "type": "t_string_storage"
          },
          {
            "astId": 3002,
            "contract": "contracts/CashBackNFT.sol:CashBackNFT",
            "label": "name",
            "offset": 0,
            "slot": "2",
            "type": "t_string_storage"
          },
          {
            "astId": 3004,
            "contract": "contracts/CashBackNFT.sol:CashBackNFT",
            "label": "metadata",
            "offset": 0,
            "slot": "3",
            "type": "t_string_storage"
          },
          {
            "astId": 3006,
            "contract": "contracts/CashBackNFT.sol:CashBackNFT",
            "label": "available",
            "offset": 0,
            "slot": "4",
            "type": "t_bool"
          },
          {
            "astId": 3008,
            "contract": "contracts/CashBackNFT.sol:CashBackNFT",
            "label": "doneCheckIn",
            "offset": 1,
            "slot": "4",
            "type": "t_bool"
          }
        ],
        "numberOfBytes": "160"
      },
      "t_uint256": {
        "encoding": "inplace",
        "label": "uint256",
        "numberOfBytes": "32"
      }
    }
  }
}